:1000000029C000002FC000002DC000002BC0000040
:1000100029C0000027C0000025C0000023C0000048
:1000200021C000001FC000001DC000001BC0000058
:1000300019C0000017C0000015C0000013C0000068
:1000400011C000000FC000000DC000000BC0000078
:1000500009C0000011241FBECFE5D8E0DEBFCDBF30
:1000600002D025C0CDCF0F931F93DF93CF930F9274
:10007000CDB7DEB781B38F6081BB82B3807F82BB97
:1000800009D019828E010F5F1F4FC8010AD08981E4
:1000900082BBFBCF87B38F7487BBBE9A80E48DB9D8
:1000A0000895FC01779BFECF8FB180830895F8946B
:0200B000FFCF80
:00000001FF
